:020000020000FC
:040000000C94460016
:080014000C9474040C94940494
:040028000C94CA0466
:040038000C944104DF
:040040000C94E70431
:040048000C9480088C
:10008C008FEF8DBF80E18EBF002411E0112E1FEF8A
:10009C00212E07D0DED08DE00FD0E2D046D359D040
:1000AC00FCCF10E01093900010E119B918E11AB9C7
:1000BC0016E01093950008958D3021F48F938AE00B
:1000CC00FBDF8F915D9BFECF8CB908955F9BFECFBC
:1000DC008CB108958591803011F0EEDFFBCF08953F
:1000EC001F93F4DF8D3041F08F3719F0E5DF8993E2
:1000FC00F8CF2197E1DFF5CF10E018831F91089519
:10010C008991803011F0D8DFFBCF08952F93282FE1
:10011C00807F869586958695869507D0CDDF822F34
:10012C008F7003D0C9DF2F9108958A3010F4805D51
:10013C000895895C08950E94A6000197E1F708953F
:10014C00CF93DF93CBE9DFE02197F1F7DF91CF91EC
:10015C000895D1E0C0E0F2E0E8E2D1D2882399F131
:10016C00F050EA5FCCD2882389F1F050EA5FC7D215
:10017C00882389F1F050EA5FC2D2882389F1F050CC
:10018C00EA5FBDD2882389F1F050EA5FB8D28823A8
:10019C0089F1F050EA5FB3D2882389F1F050EA5F1D
:1001AC00AED2882389F1F050EA5FA9D2882389F175
:1001BC00F6E0E4EF8FDFD1E0C0E0A2DF81E27CDF8C
:1001CC008DE07ADF08950E94A10308950E94B20386
:1001DC008DE072DF08950E94C6038DE06DDF0895F7
:1001EC000E94F9038DE068DF08950E9466058DE09A
:1001FC0063DF08950E94AA048DE05EDF08950E94DB
:10020C009F058DE059DF08950E94D8058DE054DFDD
:10021C0008950E9454068DE04FDF089568656C7058
:10022C0000006C6564000000736567310000736545
:10023C00676E000070686F6E650062757A00000072
:10024C0070686F746F0074656D70000070726F6A07
:10025C000000F2E0E8E83EDFF2E0E8EA3BDF089578
:10026C00F2E0E4E737DF08951B5B303B33326D433C
:10027C004D443A3E3E201B5B306D00004275696C6C
:10028C0074206F6E204D617920333120323032333F
:10029C00202030323A32383A35380D002B3D3D3D76
:1002AC003D3D3D3D3D3D3D3D3D3D3D3D3D3D3D3D72
:1002BC003D3D3D3D3D3D3D3D3D3D3D3D3D3D3D3D62
:1002CC003D3D3D3D3D3D3D3D3D3D3D3D3D3D3D3D52
:1002DC003D3D3D3D3D3D3D3D3D3D3D3D3D3D3D3D42
:1002EC002B0D7C205468697320697320616E20414A
:1002FC00565220426F617264205465737420202022
:10030C0020202020202020202020202020202020E1
:10031C0020202020202020202020202020202020D1
:10032C002020202020207C0D7C2050726F67726171
:10033C006D6D6564206279204B616E6720486F207B
:10034C002853747564656E7420233A203230313929
:10035C003130373735292020202020202020202024
:10036C002020202020202020202020207C0D7C20DC
:10037C00466F6C6C6F77696E6720636F6D6D616E25
:10038C006473206172652070726F76696465642095
:10039C002020202020202020202020202020202051
:1003AC002020202020202020202020202020202041
:1003BC0020207C0D2B3D3D3D3D3D3D3D3D3D3D3D9E
:1003CC003D3D3D3D3D3D3D3D3D3D3D3D3D3D3D3D51
:1003DC003D3D3D3D3D3D3D3D3D3D3D3D3D3D3D3D41
:1003EC003D3D3D3D3D3D3D3D3D3D3D3D3D3D3D3D31
:1003FC003D3D3D3D3D3D3D3D2B0D7C2068656C708C
:10040C00203A20446973706C617920616C6C2073A4
:10041C007570706F7274656420636F6D6D616E645E
:10042C0020202020202020202020202020202020C0
:10043C0020202020202020202020202020207C0D67
:10044C007C206C656420203A204C45442054657314
:10045C00742020202020202020202020202020203C
:10046C002020202020202020202020202020202080
:10047C002020202020202020202020202020202070
:10048C00202020207C0D7C2073656731203A20537E
:10049C00696E676C65205365676D656E7420446981
:1004AC0073706C6179205465737420202020202097
:1004BC002020202020202020202020202020202030
:1004CC00202020202020202020207C0D7C207365E3
:1004DC00676E203A204D756C7469706C652053659D
:1004EC00676D656E7420446973706C617920546516
:1004FC007374202020202020202020202020202049
:10050C0020202020202020202020202020202020DF
:10051C007C0D7C2070686F6E653A2050686F6E653C
:10052C00204E756D62657220446973706C61792020
:10053C00546573742020202020202020202020208F
:10054C00202020202020202020202020202020209F
:10055C002020202020207C0D7C2062757A20203ADF
:10056C002042757A7A65722054657374202020209D
:10057C00202020202020202020202020202020206F
:10058C00202020202020202020202020202020205F
:10059C002020202020202020202020207C0D7C20AA
:1005AC0070686F746F3A2050686F746F2053656E6B
:1005BC00736F72205465737420202020202020201B
:1005CC00202020202020202020202020202020201F
:1005DC00202020202020202020202020202020200F
:1005EC0020207C0D7C2074656D70203A2054656D44
:1005FC0070657261747572652053656E736F7220CD
:10060C0054657374202020202020202020202020BE
:10061C0020202020202020202020202020202020CE
:10062C0020202020202020207C0D7C2070726F6ADE
:10063C00203A20596F75722050726F6A656374206E
:10064C00546573742020202020202020202020207E
:10065C00202020202020202020202020202020208E
:10066C0020202020202020202020202020207C0D35
:10067C002B3D3D3D3D3D3D3D3D3D3D3D3D3D3D3DB0
:10068C003D3D3D3D3D3D3D3D3D3D3D3D3D3D3D3D8E
:10069C003D3D3D3D3D3D3D3D3D3D3D3D3D3D3D3D7E
:1006AC003D3D3D3D3D3D3D3D3D3D3D3D3D3D3D3D6E
:1006BC003D3D3D3D2B0D205072657373696E672077
:1006CC004354524C2D43207465726D696E61746590
:1006DC00732073656C656374656420746573742032
:1006EC002121212020200D0057726F6E6720436F4F
:1006FC006D6D616E64202E2E2E2E2E2E0000DF933B
:10070C00CF93FF93EF933F934F9343948827359167
:10071C004991403019F03417C1F381E04F913F916A
:10072C00EF91FF91CF91DF910895D1E0C0E0D8DC3B
:10073C008DE0C2DC0895EF93FF93F7E0E8E50E94AB
:10074C0070000E942F01FF91EF9108951B5B313BCC
:10075C0031481B5B324A0000C5D42ABA71E0789448
:10076C00772349F010E8412F4BBB90E084E6E3DCA3
:10077C004695D1F7F5CFF89444274BBBB7D40895E1
:10078C000F921F933F935F93ADD41FEF14BB1FE0E9
:10079C001093640072E0789438E0772379F030930A
:1007AC0065005AE0F7E0E0EE059005BA90E084E6CB
:1007BC00C2DC5A95C9F7369581F7EECFF89410E064
:1007CC0015BB33273093650091D45F913F911F91F6
:1007DC000F9008953F065B4F666D7D277F6F777C8A
:1007EC00585E797140001F937DD4F89431D03AD083
:1007FC001FEF14BB1FE01093640073E0322CB1E0C8
:10080C00A0E510E01D9310E01D9310E01D9310E087
:10081C001D937894772391F038E0B1E0A0E5309304
:10082C0065001D91F7E0E0EEE10FF00D249125BB82
:10083C0090E081E080DC369569F3F1CFF89410E01C
:10084C0019BF15BB1093650017BF50D41F910895A5
:10085C00F89410E010936A001AE01ABF10E319BF65
:10086C007894089512E01EBD11EB1DBD10EE1CBD59
:10087C0014E017BF0895F894BF93AF931F93BFB6BE
:10088C0011EB1DBD10EE1CBD301451F0B1E0A0E514
:10089C0013E0A10FB00D1C9113951A3039F01C9375
:1008AC00BFBE1F91AF91BF917894189511271C93DF
:1008BC001E9113951A3011F01C93F2CF11271C9333
:1008CC001E9113951A3011F01C93EACF11271C932B
:1008DC001E9113951630D1F31C93E2CFF894BF936D
:1008EC00AF931F938F939F93BFB6783079F0B1E09D
:1008FC00A0E510E01D9310E01D9310E01D9310E097
:10090C001D93302C90E08AE016DC00C0BFBE9F9196
:10091C008F911F91AF91BF9178940895F894BF93E4
:10092C00AF931F938F939F93BFB6783029F0309479
:10093C0090E08AE000DC00C0BFBE9F918F911F91B8
:10094C00AF91BF91789408951F93CCD3F89417D09E
:10095C00789410E117BB662474E0F9E0E6EB77239A
:10096C0041F015911015C9F3812E91E084EFE3DB72
:10097C00F6CFF89408BA07BEB9D31F91089513E0C7
:10098C0015BD10E417BF0895F894BFB61F936620E9
:10099C0021F4612C10E118BB02C0662408BA182D92
:1009AC0014BD1F91BFBE78941895112B424D6172E6
:1009BC007F89000016E013BF10E012BF11E017BFD3
:1009CC000895F894BF93AF93FF93EF935F938F9336
:1009DC001F93BFB60395043FA1F500277630B9F0FD
:1009EC00773021F1FAE0E6EBE70DF01D10E171161E
:1009FC0049F07394B1E0A0E554E015911D935A951C
:100A0C00E1F71FC07724B1E0A0E554E0F6CF0E94D7
:100A1C008E08B1E0A0E51D2D1ED01C2D1CD08D2DF7
:100A2C0075DB8C2D73DB8DE047DB0BC00E941C0645
:100A3C00B1E0A0E51DD08E2D69DB8F2D67DB8DE03D
:100A4C003BDBBFBE1F918F915F91EF91FF91AF91F7
:100A5C00BF91789418952F93212F107F169516958A
:100A6C00169516951D93122F1F701D932F91089597
:100A7C008E2D87FD04C011E11D930CD005C010E133
:100A8C001D9380958F5F06D08F2D10E087FD15E0AC
:100A9C001C930895182F1F7744271A3018F043958C
:100AAC001A50FBCF4D931D93089511111111000194
:100ABC0000100805020910060103041111111100A0
:100ACC00FF93EF93BF93AF931F930CD3F89472DF04
:100ADC0078941FEF14BB1FE01093640075E077242B
:100AEC00B1E0A0E511E11D9311E11D9311E11D93FE
:100AFC0011E11D93772391F038E0B1E0A0E530933C
:100B0C0065001D91F7E0E0EEE10FF01D249125BB8F
:100B1C0090E081E010DB369569F3F1CFF89405BADB
:100B2C000092650007BEAF91BF91EF91FF911F91AD
:100B3C000895FF93EF93BF93AF931F93D3D2E4D257
:100B4C00F89438DF78941FEF14BB1FE01093640007
:100B5C0076E0B1E0A0E511E11D9311E11D9311E1E7
:100B6C001D9311E11D93772391F038E0B1E0A0E5DE
:100B7C00309365001D91F7E0E0EEE10FF01D24913C
:100B8C0025BB90E081E0D7DA369569F3F1CFF89484
:100B9C0005BA0092650007BEAF91BF91EF91FF912E
:100BAC001F910895FF93EF93BF93AF931F939AD226
:100BBC0034D0F894FFDE78941FEF14BB1FE0109331
:100BCC00640077E0B1E0A0E511E11D9311E11D9304
:100BDC0011E11D9311E11D937723A1F038E0B1E0F1
:100BEC00A0E5309365001D91F7E0E0EEE10FF00D0C
:100BFC00249131FD206825BB90E081E09CDA36958C
:100C0C0059F3EFCFF89405BA0092650007BEAF9187
:100C1C00BF91EF91FF911F91089513E012BB1CE05F
:100C2C001093700010E01093710008958F9310D002
:100C3C0058E91DD050E01BD00BD059E918D061E019
:100C4C0020D0E82E60E01DD0F82E0AD08F910895A8
:100C5C0014EA109374001091740017FFFCCF0895E0
:100C6C0014E91093740014E61A95F1F70895509353
:100C7C00730014E8109374001091740017FFFCCFEC
:100C8C00089514E8603009F014EC1093740010917E
:100C9C00740017FFFCCF8091730008951F93BF93CE
:100CAC00AF93DF93CF93FF93EF9378E0FFE0EAE10C
:100CBC0011DA0E9436010E949B03D1E0C0E0F0E102
:100CCC00E0EC18811330E1F00E948503882391F049
:100CDC00F050EA5F0E948503882379F0F6E0E4EF98
:100CEC00F9D9D1E0C0E00E94860081E2E5D98DE01F
:100CFC00E3D9DCCF0E94FE06D9CF0E943A07D6CFAB
:100D0C008DE0DAD90E942F01EF91FF91CF91DF9105
:100D1C00AF91BF911F910895430000000000435311
:100D2C0000000000440000000000445300000000DC
:100D3C004500000000004600000000004653000083
:100D4C000000470000000000475300000000410075
:100D5C0000000000415300000000420000000000B1
:100D6C004343000000004343530000004444000090
:100D7C000000444453000000454500000000464676
:100D8C0000000000464653000000474700000000EA
:100D9C00474753000000414100000000414153000F
:100DAC000000424200000000434343000000434364
:100DBC0043530000444444000000444444530000A6
:100DCC004545450000004646460000004646465351
:100DDC000000474747000000474747530000414188
:100DEC0041000000414141530000424242000000DA
:100DFC00FF93EF93DF93CF939F928F928F93F894FF
:100E0C00BEDD789410E117BB6624F894D1E0C0E005
:100E1C0067D98DE051D9D1E0C0E018811330C9F009
:100E2C009924FDE0E4E20E948503882339F0939431
:100E3C0014E2911651F3F050EA5FF5CF7894F0E19B
:100E4C00ECECE90DF01D1491812E91E084EF73D937
:100E5C00DCCFF89408BA07BE8F918F909F90CF91FA
:100E6C00DF91EF91FF910895FF93EF93DF93CF9371
:100E7C009F928F928F934F92F89481DD789410E12A
:100E8C0017BB6624F89408BAD1E0C4E529D98DE0E3
:100E9C0013D9D1E0C4E51881133061F119911032E6
:100EAC0019F0103039F0FACF10E01A9311E0C10F9D
:100EBC00D01DF4CF1FEF1883D1E0C4E518811F3F7C
:100ECC0009F39924FDE0E4E244240E94850388237D
:100EDC0021F09394F050EA5FF7CF7894F0E1ECECCA
:100EEC00E90DF01D1491812E91E084EF24D9C40DED
:100EFC00D01DE4CFF894772708BA07BE4F908F9196
:100F0C008F909F90CF91DF91EF91FF9108952B3DA2
:100F1C003D3D3D3D3D3D3D3D3D3D3D3D3D3D3D3DF5
:100F2C003D3D3D3D3D3D3D3D3D3D3D3D3D3D3D3DE5
:100F3C003D3D3D3D3D3D3D3D3D3D3D3D3D3D3D3DD5
:100F4C003D3D3D3D3D3D3D3D3D3D3D3D3D3D3D3DC5
:100F5C003D3D2B0D7C2050726F6A656374203A20E6
:100F6C00456C656374726F6E6963205069616E6F56
:100F7C00202620417564696F20202020202020200D
:100F8C002020202020202020202020202020202055
:100F9C0020202020202020207C0D2B3D3D3D3D3D60
:100FAC003D3D3D3D3D3D3D3D3D3D3D3D3D3D3D3D65
:100FBC003D3D3D3D3D3D3D3D3D3D3D3D3D3D3D3D55
:100FCC003D3D3D3D3D3D3D3D3D3D3D3D3D3D3D3D45
:100FDC003D3D3D3D3D3D3D3D3D3D3D3D3D3D2B0D77
:100FEC007C207069616E6F203A20456C6563747269
:100FFC006F6E6963205069616E6F20202020202065
:10100C0020202020202020202020202020202020D4
:10101C0020202020202020202020202020202020C4
:10102C00202020207C0D7C20617564696F203A2083
:10103C00506C617920536F6E672077697468204B10
:10104C006579626F61726420496E7075742020201E
:10105C002020202020202020202020202020202084
:10106C00202020202020202020207C0D2B3D3D3DC9
:10107C003D3D3D3D3D3D3D3D3D3D3D3D3D3D3D3D94
:10108C003D3D3D3D3D3D3D3D3D3D3D3D3D3D3D3D84
:10109C003D3D3D3D3D3D3D3D3D3D3D3D3D3D3D3D74
:1010AC003D3D3D3D3D3D3D3D3D3D3D3D3D3D3D3D64
:1010BC002B0D00007069616E6F00617564696F00C3
:1010CC00111E2B37424D576169727A7F898F959B20
:1010DC00A1A6ABB0B5B9BDC1C4C8CBCED1D3D6D8FF
:1010EC00DADCDEE01AB110681AB908951AB11F776C
:1010FC001AB90895BFB60E946C00833011F0BFBEC0
:10110C0018957727BFBE189507B817E816B9089534
:10111C0016B1106416B916B114FFFDCFC4B0D5B01A
:02112C00089524
:00000001FF
